{"abi":[{"type":"constructor","inputs":[{"name":"_token","type":"address","internalType":"contract IERC20"}],"stateMutability":"nonpayable"},{"type":"function","name":"ethReserve","inputs":[],"outputs":[{"name":"","type":"uint256","internalType":"uint256"}],"stateMutability":"view"},{"type":"function","name":"getETHAmount","inputs":[{"name":"tokenAmount","type":"uint256","internalType":"uint256"}],"outputs":[{"name":"","type":"uint256","internalType":"uint256"}],"stateMutability":"view"},{"type":"function","name":"getTokenAmount","inputs":[{"name":"ethAmount","type":"uint256","internalType":"uint256"}],"outputs":[{"name":"","type":"uint256","internalType":"uint256"}],"stateMutability":"view"},{"type":"function","name":"provideLiquidity","inputs":[{"name":"tokenAmount","type":"uint256","internalType":"uint256"}],"outputs":[],"stateMutability":"payable"},{"type":"function","name":"swapETHForTokens","inputs":[],"outputs":[],"stateMutability":"payable"},{"type":"function","name":"swapTokensForETH","inputs":[{"name":"tokenAmount","type":"uint256","internalType":"uint256"}],"outputs":[],"stateMutability":"nonpayable"},{"type":"function","name":"token","inputs":[],"outputs":[{"name":"","type":"address","internalType":"contract IERC20"}],"stateMutability":"view"},{"type":"function","name":"tokenReserve","inputs":[],"outputs":[{"name":"","type":"uint256","internalType":"uint256"}],"stateMutability":"view"},{"type":"event","name":"ETHToTokenSwap","inputs":[{"name":"buyer","type":"address","indexed":true,"internalType":"address"},{"name":"ethAmount","type":"uint256","indexed":false,"internalType":"uint256"},{"name":"tokenAmount","type":"uint256","indexed":false,"internalType":"uint256"}],"anonymous":false},{"type":"event","name":"LiquidityProvided","inputs":[{"name":"provider","type":"address","indexed":true,"internalType":"address"},{"name":"ethAmount","type":"uint256","indexed":false,"internalType":"uint256"},{"name":"tokenAmount","type":"uint256","indexed":false,"internalType":"uint256"}],"anonymous":false},{"type":"event","name":"TokenToETHSwap","inputs":[{"name":"buyer","type":"address","indexed":true,"internalType":"address"},{"name":"tokenAmount","type":"uint256","indexed":false,"internalType":"uint256"},{"name":"ethAmount","type":"uint256","indexed":false,"internalType":"uint256"}],"anonymous":false}],"bytecode":{"object":"0x6080604052348015600f57600080fd5b50604051610914380380610914833981016040819052602c916050565b600080546001600160a01b0319166001600160a01b0392909216919091179055607e565b600060208284031215606157600080fd5b81516001600160a01b0381168114607757600080fd5b9392505050565b6108878061008d6000396000f3fe60806040526004361061007b5760003560e01c8063e56a645e1161004e578063e56a645e146100e9578063eb521a4c14610109578063ef46b2ab1461011c578063fc0c546a1461013c57600080fd5b8063c2507ac114610080578063cbcb3171146100b3578063d592cbf6146100c9578063d62ccb3f146100d3575b600080fd5b34801561008c57600080fd5b506100a061009b36600461076b565b610174565b6040519081526020015b60405180910390f35b3480156100bf57600080fd5b506100a060015481565b6100d1610197565b005b3480156100df57600080fd5b506100a060025481565b3480156100f557600080fd5b506100d161010436600461076b565b6103b6565b6100d161011736600461076b565b610604565b34801561012857600080fd5b506100a061013736600461076b565b610758565b34801561014857600080fd5b5060005461015c906001600160a01b031681565b6040516001600160a01b0390911681526020016100aa565b600060025460015483610187919061079a565b61019191906107b1565b92915050565b600034116101ec5760405162461bcd60e51b815260206004820152601b60248201527f53656e642045544820746f207377617020666f7220746f6b656e73000000000060448201526064015b60405180910390fd5b600060025411801561020057506000600154115b6102455760405162461bcd60e51b8152602060048201526016602482015275496e73756666696369656e74206c697175696469747960501b60448201526064016101e3565b600060025460015434610258919061079a565b61026291906107b1565b90506001548111156102b65760405162461bcd60e51b815260206004820152601d60248201527f4e6f7420656e6f75676820746f6b656e7320696e2074686520706f6f6c00000060448201526064016101e3565b60005460405163a9059cbb60e01b8152336004820152602481018390526001600160a01b039091169063a9059cbb906044016020604051808303816000875af1158015610307573d6000803e3d6000fd5b505050506040513d601f19601f8201168201806040525081019061032b91906107d3565b6103475760405162461bcd60e51b81526004016101e3906107fc565b3460026000828254610359919061082b565b925050819055508060016000828254610372919061083e565b9091555050604080513481526020810183905233917fe6aa971557e59193f633eeb0b4a4c07c2378cc7d54157fc4ec71fce14f35289391015b60405180910390a250565b600081116104065760405162461bcd60e51b815260206004820152601b60248201527f53656e6420746f6b656e7320746f207377617020666f7220455448000000000060448201526064016101e3565b600060025411801561041a57506000600154115b61045f5760405162461bcd60e51b8152602060048201526016602482015275496e73756666696369656e74206c697175696469747960501b60448201526064016101e3565b600060015460025483610472919061079a565b61047c91906107b1565b90506002548111156104d05760405162461bcd60e51b815260206004820152601a60248201527f4e6f7420656e6f7567682045544820696e2074686520706f6f6c00000000000060448201526064016101e3565b6000546040516323b872dd60e01b8152336004820152306024820152604481018490526001600160a01b03909116906323b872dd906064016020604051808303816000875af1158015610527573d6000803e3d6000fd5b505050506040513d601f19601f8201168201806040525081019061054b91906107d3565b6105675760405162461bcd60e51b81526004016101e3906107fc565b604051339082156108fc029083906000818181858888f19350505050158015610594573d6000803e3d6000fd5b5080600260008282546105a7919061083e565b9250508190555081600160008282546105c0919061082b565b9091555050604080518381526020810183905233917fb5d7a96075324455297464ef0338dcd5f5791cb4c6efefeb8f3295d4e7dd9380910160405180910390a25050565b6000341180156106145750600081115b6106595760405162461bcd60e51b815260206004820152601660248201527550726f766964652045544820616e6420746f6b656e7360501b60448201526064016101e3565b6000546040516323b872dd60e01b8152336004820152306024820152604481018390526001600160a01b03909116906323b872dd906064016020604051808303816000875af11580156106b0573d6000803e3d6000fd5b505050506040513d601f19601f820116820180604052508101906106d491906107d3565b6106f05760405162461bcd60e51b81526004016101e3906107fc565b3460026000828254610702919061082b565b92505081905550806001600082825461071b919061082b565b9091555050604080513481526020810183905233917f4da600077ef1c533c6fc47d886b74f8eb10195c987edfc00c907a2e184a0279491016103ab565b600060015460025483610187919061079a565b60006020828403121561077d57600080fd5b5035919050565b634e487b7160e01b600052601160045260246000fd5b808202811582820484141761019157610191610784565b6000826107ce57634e487b7160e01b600052601260045260246000fd5b500490565b6000602082840312156107e557600080fd5b815180151581146107f557600080fd5b9392505050565b602080825260159082015274151bdad95b881d1c985b9cd9995c8819985a5b1959605a1b604082015260600190565b8082018082111561019157610191610784565b818103818111156101915761019161078456fea264697066735822122004aff49a890088023012d2e129fc0584fd3f0b59428127b61be9c7063a93637464736f6c634300081a0033","linkReferences":{}},"methodIdentifiers":{"ethReserve()":"d62ccb3f","getETHAmount(uint256)":"ef46b2ab","getTokenAmount(uint256)":"c2507ac1","provideLiquidity(uint256)":"eb521a4c","swapETHForTokens()":"d592cbf6","swapTokensForETH(uint256)":"e56a645e","token()":"fc0c546a","tokenReserve()":"cbcb3171"},"id":26}