{"abi":[{"type":"constructor","inputs":[{"name":"initialSupply","type":"uint256","internalType":"uint256"}],"stateMutability":"nonpayable"},{"type":"function","name":"allowance","inputs":[{"name":"owner","type":"address","internalType":"address"},{"name":"spender","type":"address","internalType":"address"}],"outputs":[{"name":"","type":"uint256","internalType":"uint256"}],"stateMutability":"view"},{"type":"function","name":"approve","inputs":[{"name":"spender","type":"address","internalType":"address"},{"name":"value","type":"uint256","internalType":"uint256"}],"outputs":[{"name":"","type":"bool","internalType":"bool"}],"stateMutability":"nonpayable"},{"type":"function","name":"balanceOf","inputs":[{"name":"account","type":"address","internalType":"address"}],"outputs":[{"name":"","type":"uint256","internalType":"uint256"}],"stateMutability":"view"},{"type":"function","name":"decimals","inputs":[],"outputs":[{"name":"","type":"uint8","internalType":"uint8"}],"stateMutability":"view"},{"type":"function","name":"name","inputs":[],"outputs":[{"name":"","type":"string","internalType":"string"}],"stateMutability":"view"},{"type":"function","name":"number","inputs":[],"outputs":[{"name":"","type":"uint256","internalType":"uint256"}],"stateMutability":"view"},{"type":"function","name":"symbol","inputs":[],"outputs":[{"name":"","type":"string","internalType":"string"}],"stateMutability":"view"},{"type":"function","name":"totalSupply","inputs":[],"outputs":[{"name":"","type":"uint256","internalType":"uint256"}],"stateMutability":"view"},{"type":"function","name":"transfer","inputs":[{"name":"to","type":"address","internalType":"address"},{"name":"value","type":"uint256","internalType":"uint256"}],"outputs":[{"name":"","type":"bool","internalType":"bool"}],"stateMutability":"nonpayable"},{"type":"function","name":"transferFrom","inputs":[{"name":"from","type":"address","internalType":"address"},{"name":"to","type":"address","internalType":"address"},{"name":"value","type":"uint256","internalType":"uint256"}],"outputs":[{"name":"","type":"bool","internalType":"bool"}],"stateMutability":"nonpayable"},{"type":"event","name":"Approval","inputs":[{"name":"owner","type":"address","indexed":true,"internalType":"address"},{"name":"spender","type":"address","indexed":true,"internalType":"address"},{"name":"value","type":"uint256","indexed":false,"internalType":"uint256"}],"anonymous":false},{"type":"event","name":"Transfer","inputs":[{"name":"from","type":"address","indexed":true,"internalType":"address"},{"name":"to","type":"address","indexed":true,"internalType":"address"},{"name":"value","type":"uint256","indexed":false,"internalType":"uint256"}],"anonymous":false},{"type":"error","name":"ERC20InsufficientAllowance","inputs":[{"name":"spender","type":"address","internalType":"address"},{"name":"allowance","type":"uint256","internalType":"uint256"},{"name":"needed","type":"uint256","internalType":"uint256"}]},{"type":"error","name":"ERC20InsufficientBalance","inputs":[{"name":"sender","type":"address","internalType":"address"},{"name":"balance","type":"uint256","internalType":"uint256"},{"name":"needed","type":"uint256","internalType":"uint256"}]},{"type":"error","name":"ERC20InvalidApprover","inputs":[{"name":"approver","type":"address","internalType":"address"}]},{"type":"error","name":"ERC20InvalidReceiver","inputs":[{"name":"receiver","type":"address","internalType":"address"}]},{"type":"error","name":"ERC20InvalidSender","inputs":[{"name":"sender","type":"address","internalType":"address"}]},{"type":"error","name":"ERC20InvalidSpender","inputs":[{"name":"spender","type":"address","internalType":"address"}]}],"bytecode":{"object":"0x608060405234801561001057600080fd5b50604051610c23380380610c2383398101604081905261002f9161022a565b6040518060400160405280600781526020016626bcaa37b5b2b760c91b815250604051806040016040528060038152602001624d544b60e81b815250816003908161007a91906102e2565b50600461008782826102e2565b5050506100b63361009c6100bc60201b60201c565b6100a790600a61049f565b6100b190846104b5565b6100c1565b506104df565b601290565b6001600160a01b0382166100f05760405163ec442f0560e01b8152600060048201526024015b60405180910390fd5b6100fc60008383610100565b5050565b6001600160a01b03831661012b57806002600082825461012091906104cc565b9091555061019d9050565b6001600160a01b0383166000908152602081905260409020548181101561017e5760405163391434e360e21b81526001600160a01b038516600482015260248101829052604481018390526064016100e7565b6001600160a01b03841660009081526020819052604090209082900390555b6001600160a01b0382166101b9576002805482900390556101d8565b6001600160a01b03821660009081526020819052604090208054820190555b816001600160a01b0316836001600160a01b03167fddf252ad1be2c89b69c2b068fc378daa952ba7f163c4a11628f55a4df523b3ef8360405161021d91815260200190565b60405180910390a3505050565b60006020828403121561023c57600080fd5b5051919050565b634e487b7160e01b600052604160045260246000fd5b600181811c9082168061026d57607f821691505b60208210810361028d57634e487b7160e01b600052602260045260246000fd5b50919050565b601f8211156102dd57806000526020600020601f840160051c810160208510156102ba5750805b601f840160051c820191505b818110156102da57600081556001016102c6565b50505b505050565b81516001600160401b038111156102fb576102fb610243565b61030f816103098454610259565b84610293565b6020601f821160018114610343576000831561032b5750848201515b600019600385901b1c1916600184901b1784556102da565b600084815260208120601f198516915b828110156103735787850151825560209485019460019092019101610353565b50848210156103915786840151600019600387901b60f8161c191681555b50505050600190811b01905550565b634e487b7160e01b600052601160045260246000fd5b6001815b60018411156103f1578085048111156103d5576103d56103a0565b60018416156103e357908102905b60019390931c9280026103ba565b935093915050565b60008261040857506001610499565b8161041557506000610499565b816001811461042b576002811461043557610451565b6001915050610499565b60ff841115610446576104466103a0565b50506001821b610499565b5060208310610133831016604e8410600b8410161715610474575081810a610499565b61048160001984846103b6565b8060001904821115610495576104956103a0565b0290505b92915050565b60006104ae60ff8416836103f9565b9392505050565b8082028115828204841417610499576104996103a0565b80820180821115610499576104996103a0565b610735806104ee6000396000f3fe608060405234801561001057600080fd5b506004361061009e5760003560e01c806370a082311161006657806370a08231146101185780638381f58a1461014157806395d89b411461014a578063a9059cbb14610152578063dd62ed3e1461016557600080fd5b806306fdde03146100a3578063095ea7b3146100c157806318160ddd146100e457806323b872dd146100f6578063313ce56714610109575b600080fd5b6100ab61019e565b6040516100b8919061057e565b60405180910390f35b6100d46100cf3660046105e8565b610230565b60405190151581526020016100b8565b6002545b6040519081526020016100b8565b6100d4610104366004610612565b61024a565b604051601281526020016100b8565b6100e861012636600461064f565b6001600160a01b031660009081526020819052604090205490565b6100e860055481565b6100ab61026e565b6100d46101603660046105e8565b61027d565b6100e8610173366004610671565b6001600160a01b03918216600090815260016020908152604080832093909416825291909152205490565b6060600380546101ad906106a4565b80601f01602080910402602001604051908101604052809291908181526020018280546101d9906106a4565b80156102265780601f106101fb57610100808354040283529160200191610226565b820191906000526020600020905b81548152906001019060200180831161020957829003601f168201915b5050505050905090565b60003361023e81858561028b565b60019150505b92915050565b60003361025885828561029d565b610263858585610320565b506001949350505050565b6060600480546101ad906106a4565b60003361023e818585610320565b610298838383600161037f565b505050565b6001600160a01b03838116600090815260016020908152604080832093861683529290522054600019811461031a578181101561030b57604051637dc7a0d960e11b81526001600160a01b038416600482015260248101829052604481018390526064015b60405180910390fd5b61031a8484848403600061037f565b50505050565b6001600160a01b03831661034a57604051634b637e8f60e11b815260006004820152602401610302565b6001600160a01b0382166103745760405163ec442f0560e01b815260006004820152602401610302565b610298838383610454565b6001600160a01b0384166103a95760405163e602df0560e01b815260006004820152602401610302565b6001600160a01b0383166103d357604051634a1406b160e11b815260006004820152602401610302565b6001600160a01b038085166000908152600160209081526040808320938716835292905220829055801561031a57826001600160a01b0316846001600160a01b03167f8c5be1e5ebec7d5bd14f71427d1e84f3dd0314c0f7b2291e5b200ac8c7c3b9258460405161044691815260200190565b60405180910390a350505050565b6001600160a01b03831661047f57806002600082825461047491906106de565b909155506104f19050565b6001600160a01b038316600090815260208190526040902054818110156104d25760405163391434e360e21b81526001600160a01b03851660048201526024810182905260448101839052606401610302565b6001600160a01b03841660009081526020819052604090209082900390555b6001600160a01b03821661050d5760028054829003905561052c565b6001600160a01b03821660009081526020819052604090208054820190555b816001600160a01b0316836001600160a01b03167fddf252ad1be2c89b69c2b068fc378daa952ba7f163c4a11628f55a4df523b3ef8360405161057191815260200190565b60405180910390a3505050565b602081526000825180602084015260005b818110156105ac576020818601810151604086840101520161058f565b506000604082850101526040601f19601f83011684010191505092915050565b80356001600160a01b03811681146105e357600080fd5b919050565b600080604083850312156105fb57600080fd5b610604836105cc565b946020939093013593505050565b60008060006060848603121561062757600080fd5b610630846105cc565b925061063e602085016105cc565b929592945050506040919091013590565b60006020828403121561066157600080fd5b61066a826105cc565b9392505050565b6000806040838503121561068457600080fd5b61068d836105cc565b915061069b602084016105cc565b90509250929050565b600181811c908216806106b857607f821691505b6020821081036106d857634e487b7160e01b600052602260045260246000fd5b50919050565b8082018082111561024457634e487b7160e01b600052601160045260246000fdfea2646970667358221220b4cd4269764e1ff1b61279ca7bd8512df200025af74486e62dbd36fb7e2a738d64736f6c634300081a0033","linkReferences":{}},"methodIdentifiers":{"allowance(address,address)":"dd62ed3e","approve(address,uint256)":"095ea7b3","balanceOf(address)":"70a08231","decimals()":"313ce567","name()":"06fdde03","number()":"8381f58a","symbol()":"95d89b41","totalSupply()":"18160ddd","transfer(address,uint256)":"a9059cbb","transferFrom(address,address,uint256)":"23b872dd"},"id":30}